{
  "contractName": "Rawls",
  "abi": [
    {
      "constant": true,
      "inputs": [
        {
          "name": "",
          "type": "uint128"
        }
      ],
      "name": "users",
      "outputs": [
        {
          "name": "id",
          "type": "uint128"
        },
        {
          "name": "serialnumber",
          "type": "uint128"
        },
        {
          "name": "height",
          "type": "bool"
        },
        {
          "name": "weight",
          "type": "bool"
        },
        {
          "name": "sleep",
          "type": "bool"
        },
        {
          "name": "steps",
          "type": "bool"
        }
      ],
      "payable": false,
      "stateMutability": "view",
      "type": "function"
    },
    {
      "constant": true,
      "inputs": [],
      "name": "recordCount",
      "outputs": [
        {
          "name": "",
          "type": "uint128"
        }
      ],
      "payable": false,
      "stateMutability": "view",
      "type": "function"
    },
    {
      "constant": false,
      "inputs": [
        {
          "name": "serialnumber",
          "type": "uint128"
        },
        {
          "name": "height",
          "type": "bool"
        },
        {
          "name": "weight",
          "type": "bool"
        },
        {
          "name": "sleep",
          "type": "bool"
        },
        {
          "name": "steps",
          "type": "bool"
        }
      ],
      "name": "pushUser",
      "outputs": [],
      "payable": false,
      "stateMutability": "nonpayable",
      "type": "function"
    },
    {
      "constant": true,
      "inputs": [],
      "name": "getRecordCount",
      "outputs": [
        {
          "name": "",
          "type": "uint128"
        }
      ],
      "payable": false,
      "stateMutability": "view",
      "type": "function"
    },
    {
      "constant": false,
      "inputs": [
        {
          "name": "recordCount",
          "type": "uint128"
        },
        {
          "name": "height",
          "type": "bool"
        },
        {
          "name": "weight",
          "type": "bool"
        },
        {
          "name": "sleep",
          "type": "bool"
        },
        {
          "name": "steps",
          "type": "bool"
        }
      ],
      "name": "updateUser",
      "outputs": [],
      "payable": false,
      "stateMutability": "nonpayable",
      "type": "function"
    }
  ],
  "bytecode": "0x608060405234801561001057600080fd5b5061085d806100206000396000f30060806040526004361061006d576000357c0100000000000000000000000000000000000000000000000000000000900463ffffffff16806311aa8cb014610072578063900407bc14610140578063ac82450e1461018f578063ca267f28146101fe578063f75754911461024d575b600080fd5b34801561007e57600080fd5b506100af60048036038101908080356fffffffffffffffffffffffffffffffff1690602001909291905050506102bc565b60405180876fffffffffffffffffffffffffffffffff166fffffffffffffffffffffffffffffffff168152602001866fffffffffffffffffffffffffffffffff166fffffffffffffffffffffffffffffffff16815260200185151515158152602001841515151581526020018315151515815260200182151515158152602001965050505050505060405180910390f35b34801561014c57600080fd5b50610155610364565b60405180826fffffffffffffffffffffffffffffffff166fffffffffffffffffffffffffffffffff16815260200191505060405180910390f35b34801561019b57600080fd5b506101fc60048036038101908080356fffffffffffffffffffffffffffffffff169060200190929190803515159060200190929190803515159060200190929190803515159060200190929190803515159060200190929190505050610385565b005b34801561020a57600080fd5b5061021361061f565b60405180826fffffffffffffffffffffffffffffffff166fffffffffffffffffffffffffffffffff16815260200191505060405180910390f35b34801561025957600080fd5b506102ba60048036038101908080356fffffffffffffffffffffffffffffffff169060200190929190803515159060200190929190803515159060200190929190803515159060200190929190803515159060200190929190505050610644565b005b60026020528060005260406000206000915090508060000160009054906101000a90046fffffffffffffffffffffffffffffffff16908060000160109054906101000a90046fffffffffffffffffffffffffffffffff16908060010160009054906101000a900460ff16908060010160019054906101000a900460ff16908060010160029054906101000a900460ff16908060010160039054906101000a900460ff16905086565b6000809054906101000a90046fffffffffffffffffffffffffffffffff1681565b60008081819054906101000a90046fffffffffffffffffffffffffffffffff168092919060010191906101000a8154816fffffffffffffffffffffffffffffffff02191690836fffffffffffffffffffffffffffffffff1602179055505060c0604051908101604052806000809054906101000a90046fffffffffffffffffffffffffffffffff166fffffffffffffffffffffffffffffffff168152602001866fffffffffffffffffffffffffffffffff168152602001851515815260200184151581526020018215158152602001831515815250600260008060009054906101000a90046fffffffffffffffffffffffffffffffff166fffffffffffffffffffffffffffffffff166fffffffffffffffffffffffffffffffff16815260200190815260200160002060008201518160000160006101000a8154816fffffffffffffffffffffffffffffffff02191690836fffffffffffffffffffffffffffffffff16021790555060208201518160000160106101000a8154816fffffffffffffffffffffffffffffffff02191690836fffffffffffffffffffffffffffffffff16021790555060408201518160010160006101000a81548160ff02191690831515021790555060608201518160010160016101000a81548160ff02191690831515021790555060808201518160010160026101000a81548160ff02191690831515021790555060a08201518160010160036101000a81548160ff021916908315150217905550905050600185908060018154018082558091505090600182039060005260206000209060029182820401919006601002909192909190916101000a8154816fffffffffffffffffffffffffffffffff02191690836fffffffffffffffffffffffffffffffff160217905550505050505050565b60008060009054906101000a90046fffffffffffffffffffffffffffffffff16905090565b60c060405190810160405280866fffffffffffffffffffffffffffffffff16815260200160018088036fffffffffffffffffffffffffffffffff1681548110151561068b57fe5b90600052602060002090600291828204019190066010029054906101000a90046fffffffffffffffffffffffffffffffff166fffffffffffffffffffffffffffffffff16815260200185151581526020018415158152602001831515815260200182151581525060026000876fffffffffffffffffffffffffffffffff166fffffffffffffffffffffffffffffffff16815260200190815260200160002060008201518160000160006101000a8154816fffffffffffffffffffffffffffffffff02191690836fffffffffffffffffffffffffffffffff16021790555060208201518160000160106101000a8154816fffffffffffffffffffffffffffffffff02191690836fffffffffffffffffffffffffffffffff16021790555060408201518160010160006101000a81548160ff02191690831515021790555060608201518160010160016101000a81548160ff02191690831515021790555060808201518160010160026101000a81548160ff02191690831515021790555060a08201518160010160036101000a81548160ff02191690831515021790555090505050505050505600a165627a7a723058205b498ba21c9cf9ea17f5bfb7a16f9a8d081bdf498a07f87eb6a6a8d0f01a76780029",
  "source": "pragma solidity ^0.4.18;\ncontract Rawls {\n\n    uint128 public recordCount;\n    uint128[] serialnum;\n    struct User {\n        uint128 id;\n        uint128 serialnumber;\n        bool height;\n        bool weight;\n        bool sleep;\n        bool steps;\n    }\n    \n    mapping(uint128 => User) public users;\n\n    function pushUser(uint128 serialnumber, bool height, bool weight, bool sleep, bool steps) external {\n        recordCount++;\n        users[recordCount] = User(recordCount,serialnumber,height,weight,steps,sleep);\n        serialnum.push(serialnumber);\n\n    }\n\n    function getRecordCount() public view returns(uint128){\n        return (recordCount);\n    }\n    \n    function updateUser(uint128 recordCount, bool height, bool weight, bool sleep, bool steps) external {\n        users[recordCount] = User(recordCount,serialnum[recordCount-1], height,weight,sleep,steps);\n    }\n\n}\n",
  "sourcePath": "/home/pandora666/Documents/rawls/Rawls/contracts/Rawls.sol",
  "compiler": {
    "name": "solc",
    "version": "0.4.24+commit.e67f0147.Emscripten.clang"
  },
  "schemaVersion": "2.0.1",
  "updatedAt": "2018-11-15T22:41:25.794Z"
}